{
  "contractName": "VaccinePassport",
  "abi": [
    {
      "constant": true,
      "inputs": [
        {
          "name": "",
          "type": "uint256"
        }
      ],
      "name": "vaccineDetails",
      "outputs": [
        {
          "name": "batchID",
          "type": "string"
        },
        {
          "name": "vaccineName",
          "type": "string"
        },
        {
          "name": "manufacturer",
          "type": "string"
        },
        {
          "name": "placeOfVaccination",
          "type": "string"
        }
      ],
      "payable": false,
      "stateMutability": "view",
      "type": "function",
      "signature": "0x03dfeb90"
    },
    {
      "constant": true,
      "inputs": [],
      "name": "vaxxpassCount",
      "outputs": [
        {
          "name": "",
          "type": "uint256"
        }
      ],
      "payable": false,
      "stateMutability": "view",
      "type": "function",
      "signature": "0x3120aad6"
    },
    {
      "inputs": [],
      "payable": false,
      "stateMutability": "nonpayable",
      "type": "constructor",
      "signature": "constructor"
    },
    {
      "constant": false,
      "inputs": [
        {
          "name": "_name",
          "type": "string"
        },
        {
          "name": "_gender",
          "type": "string"
        },
        {
          "name": "_dob",
          "type": "string"
        },
        {
          "name": "_aadharID",
          "type": "string"
        },
        {
          "name": "_doseNo",
          "type": "string"
        },
        {
          "name": "_batchID",
          "type": "string"
        },
        {
          "name": "_vaccineName",
          "type": "string"
        },
        {
          "name": "_manufacturer",
          "type": "string"
        },
        {
          "name": "_placeOfVaccination",
          "type": "string"
        }
      ],
      "name": "AddVaccineDetail",
      "outputs": [],
      "payable": false,
      "stateMutability": "nonpayable",
      "type": "function",
      "signature": "0x48c1316c"
    }
  ],
  "bytecode": "0x60806040523480156200001157600080fd5b50604080518082018252600c81527f44696279612047617574616d00000000000000000000000000000000000000006020808301919091528251808401845260018082527f46000000000000000000000000000000000000000000000000000000000000008284015284518086018652600a8082527f32342d31322d313939390000000000000000000000000000000000000000000082860152865180880188528181527f313233343332353334350000000000000000000000000000000000000000000081870152875180890189529384527f32000000000000000000000000000000000000000000000000000000000000008487015287518089018952600481527f3233313400000000000000000000000000000000000000000000000000000000818801528851808a018a529283527f436f7669736869656c6400000000000000000000000000000000000000000000838801528851808a018a52600f81527f536572756d20496e737469747574650000000000000000000000000000000000818901528951808b01909a5260138a527f58595a20486f73706974616c2c2044656c686900000000000000000000000000978a0197909752620001ea9895969395919493909291640100000000620001f0810204565b620003e4565b620001fa620002e6565b608060405190810160405280868152602001858152602001848152602001838152509050620002286200030f565b506040805160a0810182528b815260208082018c90528183018b9052606082018a905260808201899052600080546001808201835581835283529390208451805193949386936200027e9284929101906200033f565b5060208281015180516200029992600185019201906200033f565b5060408201518051620002b79160028401916020909101906200033f565b5060608201518051620002d59160038401916020909101906200033f565b505050505050505050505050505050565b608060405190810160405280606081526020016060815260200160608152602001606081525090565b60a06040519081016040528060608152602001606081526020016060815260200160608152602001606081525090565b828054600181600116156101000203166002900490600052602060002090601f016020900481019282601f106200038257805160ff1916838001178555620003b2565b82800160010185558215620003b2579182015b82811115620003b257825182559160200191906001019062000395565b50620003c0929150620003c4565b5090565b620003e191905b80821115620003c05760008155600101620003cb565b90565b610bb080620003f46000396000f3fe6080604052600436106100565763ffffffff7c010000000000000000000000000000000000000000000000000000000060003504166303dfeb90811461005b5780633120aad61461022f57806348c1316c14610256575b600080fd5b34801561006757600080fd5b506100856004803603602081101561007e57600080fd5b5035610744565b6040518080602001806020018060200180602001858103855289818151815260200191508051906020019080838360005b838110156100ce5781810151838201526020016100b6565b50505050905090810190601f1680156100fb5780820380516001836020036101000a031916815260200191505b5085810384528851815288516020918201918a019080838360005b8381101561012e578181015183820152602001610116565b50505050905090810190601f16801561015b5780820380516001836020036101000a031916815260200191505b50858103835287518152875160209182019189019080838360005b8381101561018e578181015183820152602001610176565b50505050905090810190601f1680156101bb5780820380516001836020036101000a031916815260200191505b50858103825286518152865160209182019188019080838360005b838110156101ee5781810151838201526020016101d6565b50505050905090810190601f16801561021b5780820380516001836020036101000a031916815260200191505b509850505050505050505060405180910390f35b34801561023b57600080fd5b506102446109a0565b60408051918252519081900360200190f35b34801561026257600080fd5b50610742600480360361012081101561027a57600080fd5b81019060208101813564010000000081111561029557600080fd5b8201836020820111156102a757600080fd5b803590602001918460018302840111640100000000831117156102c957600080fd5b91908080601f016020809104026020016040519081016040528093929190818152602001838380828437600092019190915250929594936020810193503591505064010000000081111561031c57600080fd5b82018360208201111561032e57600080fd5b8035906020019184600183028401116401000000008311171561035057600080fd5b91908080601f01602080910402602001604051908101604052809392919081815260200183838082843760009201919091525092959493602081019350359150506401000000008111156103a357600080fd5b8201836020820111156103b557600080fd5b803590602001918460018302840111640100000000831117156103d757600080fd5b91908080601f016020809104026020016040519081016040528093929190818152602001838380828437600092019190915250929594936020810193503591505064010000000081111561042a57600080fd5b82018360208201111561043c57600080fd5b8035906020019184600183028401116401000000008311171561045e57600080fd5b91908080601f01602080910402602001604051908101604052809392919081815260200183838082843760009201919091525092959493602081019350359150506401000000008111156104b157600080fd5b8201836020820111156104c357600080fd5b803590602001918460018302840111640100000000831117156104e557600080fd5b91908080601f016020809104026020016040519081016040528093929190818152602001838380828437600092019190915250929594936020810193503591505064010000000081111561053857600080fd5b82018360208201111561054a57600080fd5b8035906020019184600183028401116401000000008311171561056c57600080fd5b91908080601f01602080910402602001604051908101604052809392919081815260200183838082843760009201919091525092959493602081019350359150506401000000008111156105bf57600080fd5b8201836020820111156105d157600080fd5b803590602001918460018302840111640100000000831117156105f357600080fd5b91908080601f016020809104026020016040519081016040528093929190818152602001838380828437600092019190915250929594936020810193503591505064010000000081111561064657600080fd5b82018360208201111561065857600080fd5b8035906020019184600183028401116401000000008311171561067a57600080fd5b91908080601f01602080910402602001604051908101604052809392919081815260200183838082843760009201919091525092959493602081019350359150506401000000008111156106cd57600080fd5b8201836020820111156106df57600080fd5b8035906020019184600183028401116401000000008311171561070157600080fd5b91908080601f0160208091040260200160405190810160405280939291908181526020018383808284376000920191909152509295506109a6945050505050565b005b60016020818152600092835260409283902080548451600294821615610100026000190190911693909304601f81018390048302840183019094528383529283918301828280156107d65780601f106107ab576101008083540402835291602001916107d6565b820191906000526020600020905b8154815290600101906020018083116107b957829003601f168201915b505050505090806001018054600181600116156101000203166002900480601f0160208091040260200160405190810160405280929190818152602001828054600181600116156101000203166002900480156108745780601f1061084957610100808354040283529160200191610874565b820191906000526020600020905b81548152906001019060200180831161085757829003601f168201915b50505060028085018054604080516020601f60001961010060018716150201909416959095049283018590048502810185019091528181529596959450909250908301828280156109065780601f106108db57610100808354040283529160200191610906565b820191906000526020600020905b8154815290600101906020018083116108e957829003601f168201915b5050505060038301805460408051602060026001851615610100026000190190941693909304601f81018490048402820184019092528181529495949350908301828280156109965780601f1061096b57610100808354040283529160200191610996565b820191906000526020600020905b81548152906001019060200180831161097957829003601f168201915b5050505050905084565b60005481565b6109ae610a90565b6080604051908101604052808681526020018581526020018481526020018381525090506109da610ab9565b506040805160a0810182528b815260208082018c90528183018b9052606082018a90526080820189905260008054600180820183558183528352939020845180519394938693610a2e928492910190610ae9565b506020828101518051610a479260018501920190610ae9565b5060408201518051610a63916002840191602090910190610ae9565b5060608201518051610a7f916003840191602090910190610ae9565b505050505050505050505050505050565b608060405190810160405280606081526020016060815260200160608152602001606081525090565b60a06040519081016040528060608152602001606081526020016060815260200160608152602001606081525090565b828054600181600116156101000203166002900490600052602060002090601f016020900481019282601f10610b2a57805160ff1916838001178555610b57565b82800160010185558215610b57579182015b82811115610b57578251825591602001919060010190610b3c565b50610b63929150610b67565b5090565b610b8191905b80821115610b635760008155600101610b6d565b9056fea165627a7a723058205413ef570c8395f8f5b5017d57ebb2d5010f056953477898b41fa35535aa663b0029",
  "source": "pragma solidity ^0.5.0;\n\ncontract VaccinePassport {\n  uint public vaxxpassCount;\n\n  struct CardHolder {\n    string name;\n    string gender; // m/f/l/g/b/t/q\n    string dob; //dd-mm-yyyy\n    string aadharID;\n    string doseNo;\n  }\n\n  struct VaccineDetails {\n    string batchID;\n    string vaccineName;\n    string manufacturer;\n    string placeOfVaccination;\n  }\n\n  mapping(uint => VaccineDetails) public vaccineDetails;\n\n  constructor() public {\n        AddVaccineDetail(\n                        // card holder details\n                        \"Dibya Gautam\",\n                        \"F\",\n                        \"24-12-1999\",\n                        \"1234325345\",\n                        \"2\",\n                        //vacc details\n                        \"2314\",\n                        \"Covishield\",\n                        \"Serum Institute\",\n                        \"XYZ Hospital, Delhi\");\n      }\n\n\n  function AddVaccineDetail(string memory _name,\n                            string memory _gender,\n                            string memory _dob,\n                            string memory _aadharID,\n                            string memory  _doseNo,\n                            string memory  _batchID,\n                            string memory _vaccineName,\n                            string memory _manufacturer,\n                            string memory _placeOfVaccination\n                            ) \n    public {\n    VaccineDetails memory vaccineDetail = VaccineDetails(_batchID, _vaccineName, _manufacturer, _placeOfVaccination);\n    CardHolder memory cardHolder = CardHolder(_name, _gender, _dob, _aadharID, _doseNo);\n    \n    uint cardHolderID = vaxxpassCount++; // change this to SHA256 of cardHolder\n\n    // string cardHolderID = string(sha256(abi.encode(\n    //     cardHolder.name,\n    //     cardHolder.gender,\n    //     cardHolder.dob,\n    //     cardHolder.aadharID,\n    //     cardHolder.doseNo\n    // )));\n\n    vaccineDetails[cardHolderID] = vaccineDetail;\n  }\n\n\n}",
  "sourcePath": "/home/dibya/Documents/Sem7/IBC/Vaccine-Passport-Verification/SmartContract/contracts/VaccinePassport.sol",
  "compiler": {
    "name": "solc",
    "version": "0.5.0+commit.1d4f565a.Emscripten.clang"
  },
  "schemaVersion": "3.0.1",
  "updatedAt": "2021-10-21T15:20:53.638Z",
  "devdoc": {
    "methods": {}
  },
  "userdoc": {
    "methods": {}
  }
}